:100000000C942A000C9447000C9447000C94470071
:100010000C94D91A0C94B01A0C9447000C94351A0D
:100020000C945E1A0C94871A0C94E3190C940C1A15
:100030000C9447000C945E200C9435200C9487207F
:100040000C942D170C9447000C9447000C94470017
:100050000C94470011241FBECFE5D8E0DEBFCDBF12
:1000600014E0A0E6B0E0ECE4FDE402C005900D92DF
:10007000AA3BB107D9F715E0AAEBB4E001C01D9285
:10008000A131B107E1F70E947B150C94A4260C94D2
:100090000000EF92FF920F93DF93CF93CDB7DEB7BF
:1000A00060970FB6F894DEBF0FBECDBFA82F002318
:1000B00009F461C07E010894E11CF11C88E0F7019D
:1000C00011928A95E9F729833A834B835C836D8388
:1000D0007E83AF83988780E2801BE82FFF27E7FDB0
:1000E000F09549815A816B817C81181684F01986BC
:1000F0001A861B861C86882799278E1B9F0B04C097
:10010000440F551F661F771F8A95D2F728C0202FEE
:10011000332727FD3095DB01CA01022E04C0880F6A
:10012000991FAA1FBB1F0A94D2F789879A87AB87AA
:10013000BC8704C07695679557954795EA95D2F7A1
:100140008D819E81AF81B88504C0880F991FAA1F39
:10015000BB1F2A95D2F7482B592B6A2B7B2B4D8737
:100160005E876F87788B29853A854B855C856D85A1
:100170007E85AF8598898A2F60960FB6F894DEBF8A
:100180000FBECDBFCF91DF910F91FF90EF900895FB
:10019000EF92FF920F931F937B018C0120E030E0E0
:1001A00040E05FE40E94AD1088238CF0C801B701E5
:1001B00020E030E040E05FE40E94250F0E940D1136
:1001C0009B01AC01205030404040504806C0C8015F
:1001D000B7010E940D119B01AC01B901CA011F9129
:1001E0000F91FF90EF900895AEE5B0E0EAEFF0E0F8
:1001F0000C946D26A8E04E010894811C911CF4011A
:100200006A2E11926A94E9F729833A834B835C83BF
:100210006D837E838F839887CE010996FC011192AE
:10022000AA95E9F7A986BA86CB86DC86ED86FE8696
:100230000F87188B29843A844B845C84ED84FE8478
:100240000F85188969807A808B809C806DA67EA638
:100250008FA698AA6D807E808F809884E114F10427
:100260000105110509F0B3C36214730484049504F5
:1002700008F03DC100E0201600E0300601E0400635
:1002800000E0500688F41FEF2116310441045104A8
:1002900039F030F048E0E42EF12C012D112D18C07A
:1002A000EE24FF24870114C020E0221620E032064D
:1002B00020E0420621E0520630F038E1E32EF12C36
:1002C000012D112D05C020E1E22EF12C012D112D63
:1002D000D201C1010E2C04C0B695A79597958795BC
:1002E0000A94D2F781559C4FDC012C9180E290E07A
:1002F000A0E0B0E08E199F09A00BB10B7C018D012D
:10030000E21AF10801091109E114F10401051105CE
:10031000A1F10E2C04C0220C331C441C551C0A9461
:10032000D2F7A40193010E2C04C0220F331F441FE7
:10033000551F0A94D2F780E290E08E199F096DA4B0
:100340007EA48FA498A804C0969487947794679409
:100350008A95D2F7622A732A842A952AADA4BEA46C
:10036000CFA4D8A804C0AA0CBB1CCC1CDD1CEA94EA
:10037000D2F7ADA6BEA6CFA6D8AA6201EE24FF246E
:10038000CDAADEAAEFAAF8AE9201810120703070EA
:1003900009AF1AAF2BAF3CAFC401B301A70196015F
:1003A0000E944B267B018C01C401B3012DA93EA9FB
:1003B0004FA958AD0E944B26C901DA013C014D01FD
:1003C000C401B30129AD3AAD4BAD5CAD0E942C2602
:1003D0009B01AC018701FF24EE24ADA4BEA4CFA4F1
:1003E000D8A8C601AA27BB2757016801A82AB92A9D
:1003F000CA2ADB2AA216B306C406D506E0F408947E
:100400006108710881089108A20CB31CC41CD51C9A
:10041000A214B304C404D50470F0A216B306C40633
:10042000D50648F408946108710881089108A20C67
:10043000B31CC41CD51CA21AB30AC40AD50AC6012F
:10044000B5012DA93EA94FA958AD0E944B267B01AD
:100450008C01C601B5012DA93EA94FA958AD0E9436
:100460004B26C901DA015C016D01C601B50129AD58
:100470003AAD4BAD5CAD0E942C269B01AC018701CF
:10048000FF24EE248DA59EA5AFA5B8A9A070B070DD
:10049000E82AF92A0A2B1B2BE216F3060407150794
:1004A000C0F40894A108B108C108D108E20CF31CFB
:1004B000041D151DE214F3040405150550F0E216A1
:1004C000F3060407150728F40894A108B108C10829
:1004D000D108D3019927882786017501E82AF92ACE
:1004E0000A2B1B2BE9AAFAAA0BAB1CABCFC4211415
:1004F00031044104510471F461E070E080E090E067
:1005000020E030E040E050E00E944B26C901DA01D3
:100510001C012D0100E0201600E0300601E040063D
:1005200000E0500688F41FEF211631044104510405
:1005300031F028F048E050E060E070E017C040E0A3
:1005400050E060E070E012C020E0221620E03206A9
:1005500020E0420621E0520628F048E150E060E049
:1005600070E004C040E150E060E070E0D201C10101
:10057000042E04C0B695A795979587950A94D2F74F
:1005800081559C4FDC012C91E0E2EE2EF12C012DE7
:10059000112DD801C701841B950BA60BB70B821B2D
:1005A0009109A109B1090097A105B10561F46401A0
:1005B0005301A218B308C408D50831E0632E712C8A
:1005C000812C912C1EC16F968FAF6F97082E04C09F
:1005D000220C331C441C551C0A94D2F7EE2DE81B48
:1005E000640153010E2E04C0D694C794B794A79407
:1005F0000A94D2F7A40193016F960FAC6F9704C0D1
:10060000220F331F441F551F0A94D2F76DA47EA4F6
:100610008FA498A80E2E04C096948794779467941C
:100620000A94D2F784017301E22AF32A042B152BD2
:10063000E9A6FAA60BA71CA73201882499249201E7
:1006400081012070307021960CAF1DAF2EAF3FAFEF
:100650002197C601B501A40193010E944B267B019D
:100660008C01C601B501A40193010E944B26C9016A
:10067000DA0125968CAF9DAFAEAFBFAF2597BC0119
:10068000CD0121962CAD3DAD4EAD5FAD21970E94C1
:100690002C269B01AC018701FF24EE24A9A4BAA457
:1006A000CBA4DCA4C601AA27BB275C016D01AE2840
:1006B000BF28C02AD12AA216B306C406D50660F503
:1006C00025966CAD7DAD8EAD9FAD25976150704088
:1006D0008040904025966CAF7DAF8EAF9FAF259741
:1006E000A20CB31CC41CD51CA214B304C404D504AE
:1006F00098F0A216B306C406D50670F46150704097
:100700008040904025966CAF7DAF8EAF9FAF259710
:10071000A20CB31CC41CD51CA21AB30AC40AD50A65
:10072000C601B501A40193010E944B267B018C01F7
:10073000C601B501A40193010E944B26C901DA014B
:100740003C014D01C401B30121962CAD3DAD4EAD30
:100750005FAD21970E942C269B01AC018701FF24ED
:10076000EE2489A59AA5ABA5BCA5A070B0705701D1
:100770006801A82AB92ACA2ADB2AA216B306C40627
:10078000D506E0F408946108710881089108A20C6C
:10079000B31CC41CD51CA214B304C404D50470F04B
:1007A000A216B306C406D50648F408946108710879
:1007B00081089108A20CB31CC41CD51C8DA59EA554
:1007C000AFA5B8A96F960FAC6F9704C0880F991F9B
:1007D000AA1FBB1F0A94D2F78DA79EA7AFA7B8ABDD
:1007E000A21AB30AC40AD50A2596ECACFDAC0EAD2C
:1007F0001FAD2597D70199278827682A792A8A2A41
:100800009B2A82012227332729960CAF1DAF2EAFDA
:100810003FAF2997A2019101407050702D962CAFE7
:100820003DAF4EAF5FAF2D97C601B50129962CADF8
:100830003DAD4EAD5FAD29970E944B267B018C01EB
:10084000C601B50129962CAD3DAD4EAD5FAD2997E2
:100850000E944B26C901DA0161968CAF9DAFAEAF05
:10086000BFAF6197BC01CD012D962CAD3DAD4EAD16
:100870005FAD2D970E942C269B01AC018701FF24C0
:10088000EE24ADA4BEA4CFA4D8A8C601AA27BB2736
:1008900057016801A82AB92ACA2ADB2AA216B30678
:1008A000C406D50660F561966CAD7DAD8EAD9FAD8D
:1008B0006197615070408040904061966CAF7DAF11
:1008C0008EAF9FAF6197A20CB31CC41CD51CA214A1
:1008D000B304C404D50498F0A216B306C406D50622
:1008E00070F4615070408040904061966CAF7DAF75
:1008F0008EAF9FAF6197A20CB31CC41CD51CA21A6B
:10090000B30AC40AD50AC601B50129962CAD3DAD7E
:100910004EAD5FAD29970E944B267B018C01C6012D
:10092000B50129962CAD3DAD4EAD5FAD29970E9426
:100930004B26C901DA015C016D01C601B5012D9696
:100940002CAD3DAD4EAD5FAD2D970E942C269B0189
:10095000AC018701FF24EE248DA59EA5AFA5B8A903
:10096000A070B070E82AF92A0A2B1B2BE216F306B6
:1009700004071507C0F40894A108B108C108D108FC
:10098000E20CF31C041D151DE214F3040405150507
:1009900050F0E216F3060407150728F40894A1089E
:1009A000B108C108D1086196ECACFDAC0EAD1FAD2D
:1009B0006197D7019927882796018501082B192B64
:1009C0002A2B3B2B09AB1AAB2BAB3CAB62C26E1490
:1009D0007F048006910608F451C220E0E21620E070
:1009E000F20621E0020720E0120788F43FEFE31649
:1009F000F1040105110531F028F048E050E060E015
:100A000070E017C040E050E060E070E012C040E0ED
:100A1000E41640E0F40640E0040741E0140728F043
:100A200048E150E060E070E004C040E150E060E088
:100A300070E0D801C701042E04C0B695A79597951C
:100A400087950A94D2F781559C4FDC012C9130E2B6
:100A5000A32EB12CC12CD12CD601C501841B950B22
:100A6000A60BB70B821B9109A109B1090097A1053B
:100A7000B10589F4E614F7040805190508F4F2C174
:100A80006DA47EA48FA498A86214730484049504B2
:100A900008F0E8C1F3C16E968FAF6E97082E04C0C0
:100AA000EE0CFF1C001F111F0A94D2F76A2D681B61
:100AB000D201C101062E04C0B695A79597958795DA
:100AC0000A94D2F75C016D01AE28BF28C02AD12A52
:100AD000ADA2BEA2CFA2D8A6720161016E960FACE4
:100AE0006E9704C0CC0CDD1CEE1CFF1C0A94D2F7E0
:100AF000C9A2DAA2EBA2FCA264015301062E04C033
:100B0000D694C794B794A7940A94D2F7D401C3019A
:100B10006E960FAC6E9704C0880F991FAA1FBB1F5B
:100B20000A94D2F7EDA4FEA40FA518A904C0169547
:100B30000795F794E7946A95D2F737014801682A38
:100B4000792A8A2A9B2A6D8E7E8E8F8E98A2EDA09E
:100B5000FEA00FA118A538018824992498018701C7
:100B60002070307065960CAF1DAF2EAF3FAF65970C
:100B7000C601B501A40193010E944B267B018C01A3
:100B8000C601B501A40193010E944B26C901DA01F7
:100B90001C012D01C201B10165962CAD3DAD4EADDC
:100BA0005FAD65970E942C269B01AC018701FF2455
:100BB000EE24AD8CBE8CCF8CD8A0C601AA27BB2753
:100BC00057016801A82AB92ACA2ADB2AA216B30645
:100BD000C406D50600F508942108310841085108DB
:100BE000EDA0FEA00FA118A5AE0CBF1CC01ED11E0B
:100BF000AE14BF04C006D10670F0A216B306C40638
:100C0000D50648F408942108310841085108AE0C73
:100C1000BF1CC01ED11EA21AB30AC40AD50AC6013F
:100C2000B501A40193010E944B267B018C01C601F2
:100C3000B501A40193010E944B26C901DA013C01D0
:100C40004D01C401B30165962CAD3DAD4EAD5FAD18
:100C500065970E942C269B01AC018701FF24EE249E
:100C60008D8D9E8DAF8DB8A1A070B07057016801B9
:100C7000A82AB92ACA2ADB2AA216B306C406D506B0
:100C800000F5089461087108810891086DA17EA1A2
:100C90008FA198A5A60EB71EC81ED91EA616B70608
:100CA000C806D90670F0A216B306C406D50648F4E5
:100CB00008946108710881089108A60EB71EC81E25
:100CC000D91ED601C501821B930BA40BB50B898FCE
:100CD0009A8FAB8FBC8FD10199278827640153016C
:100CE000A82AB92ACA2ADB2AA9AABAAACBAADCAAA4
:100CF000860175012FEF3FEF40E050E0E222F32242
:100D000004231523A601662777276D964CAF5DAFA8
:100D10006EAF7FAF6D97A9A0BAA0CBA0DCA06FEF9C
:100D20007FEF80E090E0A622B722C822D92289A1D5
:100D30009AA1ABA1BCA11D0144245524C801B7014F
:100D4000A60195010E942C2669966CAF7DAF8EAFEF
:100D50009FAF6997C801B701A20191010E942C269B
:100D60003B014C016D966CAD7DAD8EAD9FAD6D9729
:100D7000A60195010E942C267B018C016D966CAD1D
:100D80007DAD8EAD9FAD6D97A20191010E942C2685
:100D90005B016C01A8019701260D371D481D591DE7
:100DA00069966CAC7DAC8EAC9FAC6997C401AA27E8
:100DB000BB27280F391F4A1F5B1F2E153F05400711
:100DC000510748F4E12CF12C61E0062F112DAE0CF7
:100DD000BF1CC01ED11ECA01AA27BB27BC01CD0162
:100DE0006A0D7B1D8C1D9D1D698C7A8C8B8C9C8C57
:100DF000661677068806990640F166157705880518
:100E0000990509F043C0D9019927882769962CAD27
:100E10003DAD4EAD5FAD699740705070820F931F2E
:100E2000A41FB51F2DA53EA54FA558A96E960FACC2
:100E30006E9704C0220F331F441F551F0A94D2F728
:100E4000281739074A075B0708F509A91AA92BA92A
:100E50003CA9015010402040304009AB1AAB2BABED
:100E60003CAB14C066247724430121E030E040E02D
:100E700050E029AB3AAB4BAB5CAB0BC0662477249C
:100E8000430119AA1AAA1BAA1CAA03C06624772424
:100E90004301FE01719688E0DF011D928A95E9F712
:100EA000A9A8BAA8CBA8DCA8A98ABA8ACB8ADC8A66
:100EB0006D8A7E8A8F8A988E29A93A894B895C89A6
:100EC000662D7E898F89988DC25ADF4FE2E10C949E
:100ED0008926ABE5B0E0EFE6F7E00C946D26A8E0DC
:100EE0004E010894811C911CF4016A2E11926A949F
:100EF000E9F729833A834B835C836D837E838F83F9
:100F00009887CE010996FC011192AA95E9F7A98666
:100F1000BA86CB86DC86ED86FE860F87188B298401
:100F20003A844B845C84AD84BE84CF84D888298184
:100F30003A814B815C8169962FAF69976A963FAF82
:100F40006A976B964FAF6B976C965FAF6C976C968A
:100F50006CAC7DAC8EAC9FAC6C9769AA7AAA8BAA5C
:100F60009CAA6D817E818F8198853B014C016DAA81
:100F70007EAA8FAA98AEA114B104C104D10409F0CD
:100F800004C3621473048404950408F000C100E0F3
:100F9000201600E0300601E0400600E0500688F42C
:100FA0001FEF211631044104510439F030F088E07C
:100FB000E82EF12C012D112D18C0EE24FF248701FD
:100FC00014C040E0241640E0340640E0440641E00E
:100FD000540630F0B8E1EB2EF12C012D112D05C097
:100FE000A0E1EA2EF12C012D112DD201C1010E2C10
:100FF00004C0B695A795979587950A94D2F7815521
:101000009C4FDC012C9180E290E0A0E0B0E08E19D2
:101010009F09A00BB10B5C016D01A21AB108C108B8
:10102000D108A9AEBAAECBAEDCAEA114B104C104F6
:10103000D10409F43FC069AD062E04C0220C331C54
:10104000441C551C0A94D2F7A4019301062E04C037
:10105000220F331F441F551F0A94D2F780E290E0FD
:101060008A199B096C96CCACDDACEEACFFAC6C97EE
:1010700004C0F694E794D794C7948A95D2F7870171
:101080007601E22AF32A042B152BEDAAFEAA0FAB58
:1010900018AF6C968CAD9DADAEADBFAD6C9704C076
:1010A000880F991FAA1FBB1F6A95D2F789AB9AAB0D
:1010B000ABABBCAB320188249924B201A1016070B2
:1010C000707021964CAF5DAF6EAF7FAF21976DA969
:1010D0007EA98FA998ADA40193010E944B267B01A4
:1010E0008C016DA97EA98FA998ADA40193010E94DE
:1010F0004B26CA01B90121962CAD3DAD4EAD5FAD79
:1011000021970E942C269B01AC018701FF24EE242D
:10111000A9A8BAA8CBA8DCA8C601AA27BB27570153
:101120006801A82AB92ACA2ADB2AA216B306C4066D
:10113000D50690F4A20CB31CC41CD51CA214B30495
:10114000C404D50448F0A216B306C406D50620F49C
:10115000A20CB31CC41CD51CA21AB30AC40AD50A1B
:10116000C601B501A40193010E944B267B018C01AD
:10117000C601B501A40193010E944B26CA01B90121
:1011800021962CAD3DAD4EAD5FAD2197BAC1211476
:1011900031044104510471F461E070E080E090E0BA
:1011A00020E030E040E050E00E944B26C901DA0127
:1011B0001C012D0100E0201600E0300601E0400691
:1011C00000E0500688F41FEF211631044104510459
:1011D00039F030F068E0E62EF12C012D112D18C009
:1011E000EE24FF24870114C040E0241640E03406BA
:1011F00040E0440641E0540630F058E1E52EF12C81
:10120000012D112D05C040E1E42EF12C012D112DF1
:10121000D201C1010E2C04C0B695A795979587956C
:101220000A94D2F781559C4FDC012C9130E2A32E19
:10123000B12CC12CD12CD601C5018E199F09A00B50
:10124000B10B7C018D01E21AF10801091109E9AE27
:10125000FAAE0BAF1CAFE114F1040105110539F42E
:1012600064015301A218B308C408D508E2C0F9AC60
:101270006896FFAE68970F2C04C0220C331C441CE8
:10128000551C0A94D2F78A2D8F1964015301082E38
:1012900004C0D694C794B794A7940A94D2F7A40133
:1012A000930104C0220F331F441F551FFA94D2F735
:1012B0006C966CAC7DAC8EAC9FAC6C9704C0969475
:1012C0008794779467948A95D2F784017301E22A10
:1012D000F32A042B152BEDA6FEA60FA718AB32019F
:1012E00088249924B201A1016070707025964CAFDA
:1012F0005DAF6EAF7FAF2597C601B501A401930125
:101300000E944B267B018C01C601B501A40193010B
:101310000E944B26CA01B90125962CAD3DAD4EADBC
:101320005FAD25970E942C269B01AC018701FF240D
:10133000EE24ADA4BEA4CFA4D8A8C601AA27BB277B
:101340005C016D01AE28BF28C02AD12AA216B306BF
:10135000C406D50690F4A20CB31CC41CD51CA21460
:10136000B304C404D50448F0A216B306C406D506D7
:1013700020F4A20CB31CC41CD51CA21AB30AC40AC4
:10138000D50AC601B501A40193010E944B267B0139
:101390008C01C601B501A40193010E944B26CA012C
:1013A000B90125962CAD3DAD4EAD5FAD25970E94A0
:1013B0002C269B01AC018701FF24EE248DA59EA560
:1013C000AFA5B8A9A070B07057016801A82AB92AC2
:1013D000CA2ADB2AA216B306C406D50690F4A20CCC
:1013E000B31CC41CD51CA214B304C404D50448F017
:1013F000A216B306C406D50620F4A20CB31CC41C66
:10140000D51C6C96ECACFDAC0EAD1FAD6C97689620
:101410000FAC689704C0EE0CFF1C001F111F0A944C
:10142000D2F7E9AAFAAA0BAB1CABA21AB30AC40AF8
:10143000D50A320188249924B201A101607070702C
:1014400029964CAF5DAF6EAF7FAF2997C601B5014E
:10145000A40193010E944B267B018C01C601B501BA
:10146000A40193010E944B26CA01B90129962CAD13
:101470003DAD4EAD5FAD29970E942C269B01AC017E
:101480008701FF24EE24A9A8BAA8CBA8DCA8C6012E
:10149000AA27BB2757016801A82AB92ACA2ADB2A2A
:1014A000A216B306C406D50690F4A20CB31CC41C45
:1014B000D51CA214B304C404D50448F0A216B30684
:1014C000C406D50620F4A20CB31CC41CD51CA21A59
:1014D000B30AC40AD50AC601B501A40193010E944A
:1014E0004B267B018C01C601B501A40193010E942A
:1014F0004B26CA01B90129962CAD3DAD4EAD5FAD6D
:1015000029970E942C269B01AC018701FF24EE2421
:1015100089A99AA9ABA9BCA9A070B070E82AF92A38
:101520000A2B1B2BE216F3060407150790F4E20CB6
:10153000F31C041D151DE214F3040405150548F001
:10154000E216F3060407150720F4E20CF31C041D51
:10155000151DE21AF30A040B150BD801C70109ACDB
:1015600004C0B695A795979587950A94D2F7898B6D
:101570009A8BAB8BBC8B1D8A1E8A1F8A188E282FD4
:101580003A894B895C896D890CC36A147B048C048D
:101590009D0408F409C300E0A01600E0B00601E0D5
:1015A000C00600E0D00688F41FEFA116B104C10404
:1015B000D10439F030F028E0E22EF12C012D112D6C
:1015C00018C0EE24FF24870114C040E0A41640E0B8
:1015D000B40640E0C40641E0D40630F098E1E92EBC
:1015E000F12C012D112D05C080E1E82EF12C012DEB
:1015F000112DD601C5010E2C04C0B695A79597955F
:1016000087950A94D2F781559C4FDC012C9180E29A
:1016100090E0A0E0B0E08E199F09A00BB10B821BF7
:101620009109A109B1090097A105B10509F04FC0C1
:10163000A614B704C804D90458F06C96ECACFDAC01
:101640000EAD1FAD6C97E214F3040405150568F1A7
:101650006C96ECACFDAC0EAD1FAD6C97E218F308C8
:1016600004091509A40193012A193B094C095D09D4
:10167000AA24BB2465016C966CAD7DAD8EAD9FAD8B
:101680006C976E157F058007910728F4B1E0AB2EAB
:10169000B12CC12CD12CDA01C9018A199B09AC09E2
:1016A000BD098DAB9EABAFABB8AFE98AFA8A0B8BA5
:1016B0001C8B6DA87EA88FA898AC6D8A7E8A8F8AB5
:1016C000988E2E2D3A894B895C896DA96AC26796DE
:1016D0008FAF6797A6019501082E04C0220F331F14
:1016E000441F551F0A94D2F7A0E2AA2EA81A6696A4
:1016F000AFAE6697D201C10104C0B695A795979584
:101700008795AA94D2F76C017D01C22AD32AE42AD4
:10171000F52AC9A6DAA6EBA6FCA682017101679696
:101720000FAC679704C0EE0CFF1C001F111F0A943A
:10173000D2F7EDA2FEA20FA318A76401530166968B
:101740000FAC669704C0D694C794B794A7940A9434
:10175000D2F7A401930167960FAC679704C0220FDC
:10176000331F441F551F0A94D2F76C968CAD9DAD64
:10177000AEADBFAD6C9766960FAC669704C0B695DC
:10178000A795979587950A94D2F73C014D01622A57
:10179000732A842A952A69A27AA28BA29CA26C96AB
:1017A000ECACFDAC0EAD1FAD6C9767960FAC6797B8
:1017B00004C0EE0CFF1C001F111F0A94D2F7ED8E1F
:1017C000FE8E0F8F18A349A55AA56BA57CA53B01DA
:1017D00088249924607070702D964CAF5DAF6EAF09
:1017E0007FAF2D97C601B501A40193010E944B263E
:1017F0007B018C01C601B501A40193010E944B2617
:10180000C901DA011C012D01C201B1012D962CADD7
:101810003DAD4EAD5FAD2D970E942C269B01AC01D6
:101820008701FF24EE24A9A0BAA0CBA0DCA0C601AA
:10183000AA27BB2757016801A82AB92ACA2ADB2A86
:10184000A216B306C406D50600F50894210831088F
:1018500041085108E9A4FAA40BA51CA5AE0CBF1CB5
:10186000C01ED11EAE14BF04C006D10670F0A21671
:10187000B306C406D50648F4089421083108410887
:101880005108AE0CBF1CC01ED11EA21AB30AC40A56
:10189000D50AC601B501A40193010E944B267B0124
:1018A0008C01C601B501A40193010E944B26C90118
:1018B000DA013C014D01C401B3012D962CAD3DADC3
:1018C0004EAD5FAD2D970E942C269B01AC01870188
:1018D000FF24EE2489A19AA1ABA1BCA1A070B07095
:1018E00057016801A82AB92ACA2ADB2AA216B30618
:1018F000C406D50600F508946108710881089108AE
:1019000069A57AA58BA59CA5A60EB71EC81ED91ED3
:10191000A616B706C806D90670F0A216B306C40606
:10192000D50648F408946108710881089108A60E4C
:10193000B71EC81ED91ED601C501821B930BA40B6E
:10194000B50B898F9A8FAB8FBC8FD10199278827D0
:1019500084017301E82AF92A0A2B1B2B4FEFA42ECE
:101960004FEFB42EC12CD12CAE20BF20C022D122EB
:101970007801002711276DA07EA08FA098A44FEFBB
:101980005FEF60E070E064227522862297228DA1CD
:101990009EA1AFA1B8A5BD018827992765966CAF18
:1019A0007DAF8EAF9FAF6597C601B501A4019301CE
:1019B0000E942C2661966CAF7DAF8EAF9FAF619772
:1019C000C601B50165962CAD3DAD4EAD5FAD6597D9
:1019D0000E942C261B012C01C801B701A401930110
:1019E0000E942C265B016C01C801B70165962CADE5
:1019F0003DAD4EAD5FAD65970E942C267B018C01FD
:101A0000A6019501220D331D441D551D61966CAC38
:101A10007DAC8EAC9FAC6197C401AA27BB27280F71
:101A2000391F4A1F5B1F2A153B054C055D0548F40D
:101A3000812C912CE1E0AE2EB12CE80CF91C0A1D92
:101A40001B1DCA01AA27BB2757016801A80EB91E92
:101A5000CA1EDB1EA9013327222761968CAD9DADDE
:101A6000AEADBFAD6197A070B070280F391F4A1F8F
:101A70005B1FE98CFA8C0B8D1C8DEA14FB040C05A2
:101A80001D0570F0AE14BF04C006D10669F56D8D5A
:101A90007E8D8F8D98A1621773078407950720F5B7
:101AA000DA01C9016DA07EA08FA098A486199709BC
:101AB000A809B909E9A4FAA40BA51CA5AE18BF088A
:101AC000C00AD10AEE24FF248701281739074A07E4
:101AD0005B0728F421E0E22EF12C012D112DAE1828
:101AE000BF08C00AD10A02C0DA01C9016D8C7E8C20
:101AF0008F8C98A0681A790A8A0A9B0A498D5A8D98
:101B00006B8D7C8D4A195B096C097D095A016B014B
:101B10002224332421016D8D7E8D8F8D98A1661531
:101B200077058805990528F481E0282E312C412C71
:101B3000512C86017501E218F30804091509A80162
:101B4000970166960FAC669704C0220F331F441F9F
:101B5000551F0A94D2F7D401C30167960FAC67975B
:101B600004C0B695A795979587950A94D2F7282B28
:101B7000392B4A2B5B2B298B3A8B4B8B5C8B6796D3
:101B80000FAC679704C016950795F794E7940A94ED
:101B9000D2F7ED8AFE8A0F8B188F3A894B895C89C0
:101BA0006E2D7E898F89988DC55ADF4FE2E10C94A6
:101BB0008926A0E0B0E0EFEDFDE00C946D26DC019D
:101BC0002B01FA019C91923008F439C1EB01888114
:101BD000823008F433C1943069F4843009F02FC1A5
:101BE00011969C9111978981981709F428C1A7EA49
:101BF000B3E025C1843009F421C18230A9F49230C8
:101C000009F01DC19A01AD0188E0EA010990AE0119
:101C1000E90109929E018150C1F7E2018981119683
:101C20009C918923818308C1923009F407C11296DF
:101C30002D903C901397EB018A819B811496AD9077
:101C4000BD90CD90DC901797EC80FD800E811F81B8
:101C50009101281B390BB90137FF04C0662777278C
:101C6000621B730B603271050CF061C01216130613
:101C70006CF537014801062E04C09694879477943A
:101C800067940A94D2F721E030E040E050E004C0CD
:101C9000220F331F441F551F6A95D2F72150304041
:101CA000404050402E213F21402351232115310532
:101CB0004105510521F021E030E040E050E079019C
:101CC0008A01E628F728082919293CC0232BD1F1DD
:101CD000260E371E35014601062E04C096948794C1
:101CE000779467940A94D2F721E030E040E050E026
:101CF00004C0220F331F441F551F6A95D2F721508D
:101D00003040404050402A213B214C215D2121158B
:101D100031054105510521F021E030E040E050E07F
:101D200059016A01A628B728C828D9280BC08215EE
:101D300093052CF01C01AA24BB24650103C0EE24EA
:101D4000FF24870111969C91D20111968C919817CE
:101D500009F445C0992339F0A80197012A193B09D4
:101D60004C095D0906C0A60195012E193F09400BDB
:101D7000510B57FD08C011823382228224833583A0
:101D8000468357831DC081E0818333822282882766
:101D90009927DC01821B930BA40BB50B84839583DD
:101DA000A683B7830DC0220F331F441F551F248302
:101DB00035834683578382819381019793838283FE
:101DC0002481358146815781DA01C9010197A10932
:101DD000B1098F5F9F4FAF4FBF4328F30BC0918373
:101DE00033822282EA0CFB1C0C1D1D1DE482F5824D
:101DF0000683178383E08083248135814681578160
:101E000057FF1AC0C901AA2797FDA095BA2F817064
:101E10009070A070B0705695479537952795822B96
:101E2000932BA42BB52B84839583A683B7838281C0
:101E30009381019693838283DF0101C0D201CD019A
:101E4000CDB7DEB7E2E10C948926A0E2B0E0EBE288
:101E5000FFE00C94792669837A838B839C832D839E
:101E60003E834F835887E9E0EE2EF12CEC0EFD1EE9
:101E7000CE010196B7010E94FE128E010F5E1F4F28
:101E8000CE010596B8010E94FE128A8991E0892749
:101E90008A8BC701B801AE01475E5F4F0E94D90D22
:101EA0000E942912A096E6E00C949526A0E2B0E0EC
:101EB000ECE5FFE00C94792669837A838B839C831D
:101EC0002D833E834F835887F9E0EF2EF12CEC0EE3
:101ED000FD1ECE010196B7010E94FE128E010F5E1B
:101EE0001F4FCE010596B8010E94FE12C701B8012E
:101EF000AE01475E5F4F0E94D90D0E942912A09645
:101F0000E6E00C949526A0E2B0E0E9E8FFE00C944E
:101F10006D2669837A838B839C832D833E834F83D5
:101F20005887CE010196BE01675F7F4F0E94FE1267
:101F3000CE010596BE016F5E7F4F0E94FE1299850D
:101F4000923088F089898230C8F0943019F4823058
:101F500051F404C0843029F4923081F487EA93E08C
:101F6000C6C0923049F420E09A858A89981321E00E
:101F70002A87CE010996BBC0823049F420E09A85B9
:101F80008A89981321E02A8BCE014196B0C02D8416
:101F90003E844F8458886D887E888F88988CEE2484
:101FA000FF248701AA24BB24650140E050E060E0E3
:101FB00070E0E0E0F0E0C10181709070892BE9F001
:101FC000E60CF71C081D191D9A01AB012A0D3B1DDB
:101FD0004C1D5D1D80E090E0A0E0B0E0E614F70449
:101FE0000805190520F481E090E0A0E0B0E0BA0116
:101FF000A901480F591F6A1F7B1FAA0CBB1CCC1CD0
:10200000DD1C97FE08C081E090E0A0E0B0E0A82AC7
:10201000B92ACA2ADB2A3196E032F10549F0660C6A
:10202000771C881C991C5694479437942794C3CFE7
:10203000FA85EA892B893C898B859C85280F391F75
:102040002E5F3F4F17C0CA0181709070892B61F0DD
:1020500016950795F794E79480E090E0A0E0B0E84B
:10206000E82AF92A0A2B1B2B7695679557954795F1
:102070002F5F3F4F77FDE7CF0CC0440F551F661F02
:10208000771F17FD4160EE0CFF1C001F111F215030
:102090003040403090E0590790E0690790E47907BC
:1020A00060F32B8F3C8FDB01CA018F779070A0709B
:1020B000B07080349105A105B10561F447FD0AC0F7
:1020C000E114F1040105110529F0405C5F4F6F4FE9
:1020D0007F4F40781A8EFE1711F081E08A8F4D8F66
:1020E0005E8F6F8F78A383E0898FCE0149960E941F
:1020F0002912A096E2E10C948926A8E1B0E0E3E879
:10210000F0E10C94792669837A838B839C832D83F9
:102110003E834F83588789E0E82EF12CEC0EFD1E9C
:10212000CE010196B7010E94FE128E010F5E1F4F75
:10213000CE010596B8010E94FE128985823040F0DA
:102140008989823028F0C701B8010E94761301C046
:102150008FEF6896E6E00C949526A8E1B0E0E3EBFB
:10216000F0E10C94792669837A838B839C832D8399
:102170003E834F83588789E0E82EF12CEC0EFD1E3C
:10218000CE010196B7010E94FE128E010F5E1F4F15
:10219000CE010596B8010E94FE128985823040F07A
:1021A0008989823028F0C701B8010E94761301C0E6
:1021B0008FEF6896E6E00C949526A8E1B0E0E3EE98
:1021C000F0E10C94792669837A838B839C832D8339
:1021D0003E834F83588789E0E82EF12CEC0EFD1EDC
:1021E000CE010196B7010E94FE128E010F5E1F4FB5
:1021F000CE010596B8010E94FE128985823040F01A
:102200008989823028F0C701B8010E94761301C085
:1022100081E06896E6E00C949526ACE0B0E0E3E15E
:10222000F1E10C947D2669837A838B839C83CE01B4
:102230000196BE016B5F7F4F0E94FE128D8182303E
:1022400061F1823050F1843021F48E81882351F184
:102250002EC02F81388537FD20C06E812F3131058A
:102260001CF06623F9F023C08EE190E0821B930BF3
:1022700029853A854B855C8504C0569547953795E9
:1022800027958A95D2F76623B1F050954095309501
:1022900021953F4F4F4F5F4F0EC020E030E040E0B0
:1022A00050E009C02FEF3FEF4FEF5FE704C020E0A1
:1022B00030E040E050E8B901CA012C96E2E00C940D
:1022C0009926A8E0B0E0E7E6F1E10C9475267B01E1
:1022D0008C01611571058105910519F482E08983EE
:1022E00060C083E089838EE1C82ED12CDC82CB8252
:1022F000ED82FE820F831887C801B7010E94DA11B0
:10230000FC013197F7FF3BC0222733272E1B3F0BE1
:1023100057016801022E04C0D694C794B794A794BD
:102320000A94D2F740E050E060E070E081E090E095
:10233000A0E0B0E004C0880F991FAA1FBB1F2A9518
:10234000D2F70197A109B1098E219F21A023B123C2
:102350000097A105B10521F041E050E060E070E098
:102360004A295B296C297D294D835E836F83788799
:102370008EE190E08E1B9F0B9C838B8312C0309765
:1023800081F00E2E04C0EE0CFF1C001F111F0A94DA
:10239000D2F7ED82FE820F831887CE1ADF0ADC8225
:1023A000CB821A82CE0101960E9429122896EAE079
:1023B0000C949126EF92FF920F931F937B018C0157
:1023C00080E0E81680E0F80681E0080780E0180762
:1023D00088F48FEFE816F1040105110531F028F0BB
:1023E00088E090E0A0E0B0E017C080E090E0A0E0DE
:1023F000B0E012C080E0E81680E0F80680E0080750
:1024000081E0180728F088E190E0A0E0B0E004C087
:1024100080E190E0A0E0B0E020E230E040E050E079
:10242000281B390B4A0B5B0B04C016950795F794D4
:10243000E7948A95D2F7F701E155FC4F8081281B7C
:10244000310941095109C9011F910F91FF90EF9086
:102450000895DF92EF92FF920F931F93FC01E480A7
:10246000F58006811781D1808081823048F480E038
:1024700090E0A0E1B0E0E82AF92A0A2B1B2BA5C0C6
:10248000843009F49FC0823021F4EE24FF248701B8
:1024900005C0E114F1040105110519F4E0E0F0E0D4
:1024A00096C0628173819FEF623879070CF05BC040
:1024B00022E83FEF261B370B2A3131052CF020E0B4
:1024C00030E040E050E02AC0B801A701022E04C06D
:1024D00076956795579547950A94D2F781E090E0F5
:1024E000A0E0B0E004C0880F991FAA1FBB1F2A9567
:1024F000D2F70197A109B1098E219F21A023B12311
:102500000097A105B10521F081E090E0A0E0B0E0E6
:102510009A01AB01282B392B4A2B5B2BDA01C9011D
:102520008F779070A070B07080349105A105B105CF
:1025300039F427FF09C0205C3F4F4F4F5F4F04C065
:10254000215C3F4F4F4F5F4FE0E0F0E02030A0E0D4
:102550003A07A0E04A07A0E45A0710F0E1E0F0E0F3
:1025600079018A0127C06038710564F5FB01E158E3
:10257000FF4FD801C7018F779070A070B070803482
:102580009105A105B10539F4E7FE0DC080E490E0A6
:10259000A0E0B0E004C08FE390E0A0E0B0E0E80E7F
:1025A000F91E0A1F1B1F17FF05C016950795F79404
:1025B000E794319687E016950795F794E7948A9506
:1025C000D1F705C0EE24FF248701EFEFF0E06E2F76
:1025D000679566276795902F9F77D794DD24D794CA
:1025E0008E2F8695492F462B582F5D29B701CA019A
:1025F0001F910F91FF90EF90DF900895FC01DB0198
:10260000408151812281622F6F7770E0221F222743
:10261000221F9381892F880F822B282F30E0991F4A
:102620009927991F11969C93119721153105A9F5AA
:10263000411551056105710511F482E037C082E84A
:102640009FEF13969C938E9312979A01AB0167E0CC
:10265000220F331F441F551F6A95D1F783E08C93D7
:102660000DC0220F331F441F551F12968D919C9150
:102670001397019713969C938E931297203080E0C6
:10268000380780E0480780E4580758F314962D93E4
:102690003D934D935C93179708952F3F310579F43F
:1026A000411551056105710519F484E08C93089575
:1026B00064FF03C081E08C9312C01C9210C02F579E
:1026C000304013963C932E93129783E08C9387E0CF
:1026D000440F551F661F771F8A95D1F770641496B3
:1026E0004D935D936D937C93179708951F93DC0131
:1026F000FB019C91923008F447C08081823008F43D
:1027000043C0943051F411961C91843099F5818125
:10271000682F70E0611B71093FC0843021F0923056
:1027200031F48230B9F18181882389F12DC011966D
:102730001C9111978230F1F081811817D9F412960B
:102740002D913C911397828193818217930794F086
:1027500028173907BCF014968D919D910D90BC916E
:10276000A02D2481358146815781281739074A07D2
:102770005B0718F4112341F00AC082179307A407DE
:10278000B50740F4112319F061E070E005C06FEF68
:102790007FEF02C060E070E0CB011F910895AC01B3
:1027A00020E001C02F5FFA01E20FF11D8081882334
:1027B000C9F7822F0895AC0130E001C03F5FFA01F4
:1027C000E30FF11D80818823C9F720E001C02F5F4E
:1027D000FB01E20FF11D80818823C9F7321791F4C4
:1027E00020E006C0A60FB71F8C91E81759F42F5FA1
:1027F000A22FB0E0FA01EA0FFB1FE081EE2391F770
:1028000081E0089580E008951F931AE080E690E04B
:102810000E94D12080E790E00E94D1200E94B72042
:102820008093D204813309F045C085EA90E00E948C
:10283000D12082EB90E00E94D1208CEB90E00E94AE
:10284000D12080EF90E00E94D1208AE291E00E94A6
:10285000D1200E94B7208093F604819FC0011124EB
:10286000282F205E209307058B5D8093DC048FE486
:1028700091E00E94D12081EF94E00E94E42081E762
:1028800091E00E94D1208EEF94E00E94E42080919C
:10289000070590E061EF74E045E00E9437218091E8
:1028A000DC0490E06EEF74E044E00E94372189E997
:1028B00091E052C0823309F045C081EC91E00E9462
:1028C000D12082EB90E00E94D1208CEB90E00E941E
:1028D000D12080EF90E00E94D1208AE291E00E9416
:1028E000D1200E94B7208093F604819FC00111245B
:1028F000282F205E209307058B5D8093DC048FE4F6
:1029000091E00E94D12081EF94E00E94E42081E7D1
:1029100091E00E94D1208EEF94E00E94E42080910B
:10292000070590E061EF74E045E00E943721809157
:10293000DC0490E06EEF74E044E00E94372181ED0A
:1029400091E00AC0833331F48CEF91E00E94D120F2
:102950001F91089588E092E00E94D12057CFCF9335
:10296000DF9380E063EB74E00E94021B80E064E090
:102970000E94BD1B0E94FE1780E00E94DB17C8EC7E
:10298000D0E080E690E00E94D12088E192E00E94B1
:10299000D1200E94B7208093D204813309F059C01E
:1029A00088EB9BE0FE013197F1F70197D9F78DE2B3
:1029B00090E00E94E92588EB9BE0FE013197F1F75A
:1029C0000197D9F78AE590E00E94E92588EB9BE022
:1029D000FE013197F1F70197D9F787E890E00E945F
:1029E000E92588EB9BE0FE013197F1F70197D9F7D4
:1029F00084EB90E00E94E92580E395E7FE013197A2
:102A0000F1F70197D9F787E890E00E94E92588EB74
:102A10009BE0FE013197F1F70197D9F78AE590E045
:102A20000E94E92588EB9BE0FE013197F1F70197C1
:102A3000D9F78DE290E00E94E92588EB9BE0FE014A
:102A40003197F1F70197D9F780E090E00E94E925EE
:102A500098CF8233D1F488E792E00E94D1200E947F
:102A6000B7208093E704813339F482E064E00E9468
:102A70006A2582E065E026C0823339F582E064E0B1
:102A80000E94662582E065E012C0833309F588E77D
:102A900092E00E94D1200E94B7208093E704813306
:102AA00049F482E066E00E946A2582E067E00E94C5
:102AB000662567CF823349F482E066E00E9466258E
:102AC00082E067E00E946A255CCF8AE892E010C04D
:102AD000843361F48CEF91E00E94D1200E940018B1
:102AE00080E00E94721CDF91CF91089588E092E00F
:102AF0000E94D12046CF1F930E94F5200E945322AE
:102B00000E94FC2580EB94E00E94591782E064E06B
:102B10000E946E2582E065E00E946E2582E066E0FC
:102B20000E946E2582E067E00E946E2580E067E0EB
:102B30000E946E2582E067E00E946A2583E197E1AA
:102B40000E9402188FB780688FBF13E05EC180E0DB
:102B500090E063ED74E045E00E94F32185E090E0B1
:102B600068ED74E045E00E94F3218AE090E06DEDAD
:102B700074E045E00E94F3218FE090E063EE74E0A2
:102B800045E00E94F32184E190E067EF74E045E0C6
:102B90000E94F32189E190E062E075E045E00E9447
:102BA000F3218EE190E068E075E045E00E94F321BA
:102BB00083E290E06DEE74E045E00E94F32188E24C
:102BC00090E068EE74E045E00E94F3218DE290E031
:102BD0006DE075E045E00E94F3218AE992E00E94F1
:102BE000D1200E94B7208093E204813309F083C092
:102BF00080ED92E00E94D12078C08FED92E00E949B
:102C0000D12081EF94E00E94E42083ED94E061EF15
:102C100074E00E94DB13882341F48DED94E061EFB2
:102C200074E00E94DB13882369F01093AF0489E2FB
:102C300093E00E94D1208EEF94E00E94E42088ED82
:102C400094E03EC087EF94E061EF74E00E94DB13F4
:102C5000882369F01093AF0489E293E00E94D120A9
:102C60008EEF94E00E94E42082E095E029C088E0A5
:102C700095E061EF74E00E94DB13882369F0109304
:102C8000AF0489E293E00E94D1208EEF94E00E948D
:102C9000E4208DEE94E014C088EE94E061EF74E0DF
:102CA0000E94DB138823C1F01093AF0489E293E004
:102CB0000E94D1208EEF94E00E94E4208DE095E008
:102CC0006EEF74E00E94DB13882319F00E94041455
:102CD0009CC089E793E002C08CE893E00E94D12079
:102CE0008091AF0481508093AF048091AF0488231A
:102CF00009F083CF8AC0823309F083C089E993E069
:102D00000E94D12078C08FED92E00E94D12081EF07
:102D100094E00E94E42083ED94E061EF74E00E946F
:102D2000DB13882341F48DED94E061EF74E00E94A1
:102D3000DB13882369F01093AF0489E293E00E94CB
:102D4000D1208EEF94E00E94E42088ED94E03EC014
:102D500087EF94E061EF74E00E94DB13882369F051
:102D60001093AF0489E293E00E94D1208EEF94E0AB
:102D70000E94E42082E095E029C088E095E061EFC0
:102D800074E00E94DB13882369F01093AF0489E29A
:102D900093E00E94D1208EEF94E00E94E4208DEE1B
:102DA00094E014C088EE94E061EF74E00E94DB13BD
:102DB0008823C1F01093AF0489E293E00E94D120F0
:102DC0008EEF94E00E94E4208DE095E06EEF74E0D9
:102DD0000E94DB13882319F00E94AF1416C089E704
:102DE00093E002C08CE893E00E94D1208091AF0470
:102DF00081508093AF048091AF04882309F083CF82
:102E000004C088E092E00E94D1208091AF04882322
:102E100009F09DCE0E94E02583E00E947D250E945E
:102E200072251F91089524EF31E0AC01429FC0014B
:102E3000439F900D529F900D112480509C4728F085
:102E400080E067E00E946A2504C080E067E00E949D
:102E5000662580E00E94971C08951F920F920FB67E
:102E60000F9211242F933F934F935F936F937F9310
:102E70008F939F93AF93BF93EF93FF93E091BA0427
:102E8000F091BB04309721F084B195B1937009950E
:102E9000FF91EF91BF91AF919F918F917F916F9132
:102EA0005F914F913F912F910F900FBE0F901F9008
:102EB0001895FC018081813041F0813018F082301A
:102EC00041F405C03F983E9804C03F9801C03F9A26
:102ED0003E9A3D988181843041F1853048F48130BB
:102EE00091F0813070F0823091F08330F1F519C0AB
:102EF000863031F1863000F1873049F18830A9F50C
:102F00002AC0359832C0359A80B78F7D03C0359A74
:102F100080B7806280BF80B78F7B80BF80B78F779C
:102F200023C0359A80B78F7D03C0359A80B7806201
:102F300080BF80B78064F1CF359A80B78F7D03C0A2
:102F4000359A80B7806280BF80B78F7B0AC0359A80
:102F500080B78F7D03C0359A80B7806280BF80B70D
:102F6000806480BF80B7806880BF82818330B1F089
:102F7000843028F4813061F0823070F407C08530ED
:102F800099F0853070F08630A1F410C0329807C0F7
:102F90003298319A30980DC0329809C0329A3198DF
:102FA000F9CF329A319804C0329AF3CF329A319ADB
:102FB000309A379A0895982F3699FECF87B1807E40
:102FC00087B987B1892B87B9369A0895349BFECF8C
:102FD000349A24B135B13370C9010895FC0186B12A
:102FE00082958F7080FD02C080E00895349A84B18C
:102FF00095B193709183808381E00895339A089509
:10300000339808959093BB048093BA040895813057
:10301000C1F1813038F0823009F462C0833009F0A8
:10302000BBC08DC0413089F0413020F0423009F002
:10303000B3C017C02AB381E090E002C0880F991F87
:103040006A95E2F7282B2ABB08952AB381E090E025
:1030500002C0880F991F6A95E2F7809582238ABB88
:1030600008953AB381E090E002C0880F991F6A95F5
:10307000E2F7282F209523232ABB2BB3822B8BBB6F
:103080000895413089F0413020F0423009F084C089
:1030900017C027B381E090E002C0880F991F6A959E
:1030A000E2F7282B27BB089527B381E090E002C008
:1030B000880F991F6A95E2F78095822387BB089550
:1030C00037B381E090E002C0880F991F6A95E2F75C
:1030D000282F2095232327BB28B3822B88BB089554
:1030E000413089F0413020F0423009F055C017C01E
:1030F00024B381E090E002C0880F991F6A95E2F73F
:10310000282B24BB089524B381E090E002C0880FEF
:10311000991F6A95E2F78095822384BB089534B3A2
:1031200081E090E002C0880F991F6A95E2F7282F8E
:103130002095232324BB25B3822B85BB08954130E2
:1031400081F0413018F0423039F517C021B381E0E9
:1031500090E002C0880F991F6A95E2F7282B21BBE7
:10316000089521B381E090E002C0880F991F6A950D
:10317000E2F78095822381BB089531B381E090E02E
:1031800002C0880F991F6A95E2F7282F2095232304
:1031900021BB22B3822B82BB08958130F9F08130AC
:1031A00030F0823091F1833009F05CC045C02BB320
:1031B00081E090E0062E02C0880F991F0A94E2F782
:1031C000809582238BBB2BB3842F90E002C0880FA5
:1031D000991F6A95E2F7282B2BBB089528B381E04D
:1031E00090E0062E02C0880F991F0A94E2F780959E
:1031F000822388BB28B3842F90E002C0880F991FD8
:103200006A95E2F7282B28BB089525B381E090E06A
:10321000062E02C0880F991F0A94E2F78095822338
:1032200085BB25B3842F90E002C0880F991F6A9553
:10323000E2F7282B25BB089522B381E090E0062E0B
:1032400002C0880F991F0A94E2F78095822382BBFF
:1032500022B3842F90E002C0880F991F6A95E2F78D
:10326000282B22BB08958130C1F0813030F08230AC
:1032700021F1833009F040C030C0613041F061304D
:1032800018F06230C9F505C08FEF8ABB08951ABAED
:1032900008951ABA8FEF8BBB0895613041F0613009
:1032A00018F0623049F505C08FEF87BB089517BA53
:1032B000089517BA8FEF88BB0895613041F06130EF
:1032C00018F06230C9F405C08FEF84BB089514BABA
:1032D000089514BA8FEF85BB0895613041F06130D5
:1032E00018F0623049F405C08FEF81BB089511BA20
:1032F000089511BA8FEF82BB0895813049F0813073
:1033000028F0823039F0833041F406C06BBB089559
:1033100068BB089565BB089562BB0895813051F084
:10332000813030F0823041F0833079F080E00895D0
:1033300089B303C086B301C083B390E002C0959502
:1033400087956A95E2F78170089580B390E002C096
:10335000959587956A95E2F781700895813091F08F
:10336000813028F08230C9F0833061F521C02BB361
:1033700081E090E002C0880F991F6A95E2F7282744
:103380002BBB089528B381E090E002C0880F991FFD
:103390006A95E2F7282728BB089525B381E090E0DD
:1033A00002C0880F991F6A95E2F7282725BB089568
:1033B00022B381E090E002C0880F991F6A95E2F77E
:1033C000282722BB08951F920F920FB60F92112447
:1033D0002F933F934F935F936F937F938F939F931D
:1033E000AF93BF93EF93FF93E091BC04F091BD04C2
:1033F000309709F00995FF91EF91BF91AF919F919F
:103400008F917F916F915F914F913F912F910F908D
:103410000FBE0F901F9018951F920F920FB60F922C
:1034200011242F933F934F935F936F937F938F93C9
:103430009F93AF93BF93EF93FF93E091BE04F091FE
:10344000BF04309709F00995FF91EF91BF91AF91BB
:103450009F918F917F916F915F914F913F912F91AC
:103460000F900FBE0F901F9018951F920F920FB6DE
:103470000F9211242F933F934F935F936F937F93FA
:103480008F939F93AF93BF93EF93FF93E091C0040B
:10349000F091C104309709F00995FF91EF91BF9128
:1034A000AF919F918F917F916F915F914F913F91DC
:1034B0002F910F900FBE0F901F9018951F920F9293
:1034C0000FB60F9211242F933F934F935F936F93F7
:1034D0007F938F939F93AF93BF93EF93FF93E0916D
:1034E000C204F091C304309709F00995FF91EF9160
:1034F000BF91AF919F918F917F916F915F914F910C
:103500003F912F910F900FBE0F901F9018951F9213
:103510000F920FB60F9211242F933F934F935F9307
:103520006F937F938F939F93AF93BF93EF93FF938B
:10353000E091C404F091C504309709F00995FF911A
:10354000EF91BF91AF919F918F917F916F915F911B
:103550004F913F912F910F900FBE0F901F90189594
:103560001F920F920FB60F9211242F933F934F93F8
:103570005F936F937F938F939F93AF93BF93EF93DB
:10358000FF93E091C804F091C904309709F00995C0
:10359000FF91EF91BF91AF919F918F917F916F912B
:1035A0005F914F913F912F910F900FBE0F901F9001
:1035B00018951F920F920FB60F9211242F933F93DD
:1035C0004F935F936F937F938F939F93AF93BF932B
:1035D000EF93FF93E091CA04F091CB04309709F088
:1035E0000995FF91EF91BF91AF919F918F917F913D
:1035F0006F915F914F913F912F910F900FBE0F9060
:103600001F901895FB01813009F463C0813020F0D0
:10361000823009F0B1C02DC08081882319F081303B
:1036200051F403C083B7877F02C083B7886083BF2C
:1036300083B78F7B83BF6181613059F0613030F097
:10364000623069F0633009F097C00CC083B78F7E99
:1036500002C083B7806183BF83B78F7D08C083B703
:103660008F7E02C083B7806183BF83B7806283BFD0
:1036700008958081882319F0813069F406C085B5EA
:10368000877F85BD85B58F7B05C085B5877F85BD67
:1036900085B5806485BD6181613059F0613030F05D
:1036A000623069F0633009F067C00CC085B58F7E69
:1036B00002C085B5806185BD85B58F7D08C085B5A3
:1036C0008F7E02C085B5806185BD85B5806285BD70
:1036D00008958081882319F08130B1F409C08FB535
:1036E0008E7F8FBD8FB58D7F8FBD8EB5877F08C0D4
:1036F0008FB58E7F8FBD8FB58D7F8FBD8EB5886066
:103700008EBD8EB58F7E8EBD6181613081F061305E
:1037100028F06230C1F0633079F522C08FB58F7E1A
:103720008FBD8FB58F7D8FBD8FB58F7B08C08FB557
:1037300080618FBD8FB58F7D8FBD8FB580648FBD4C
:103740008FB58F770BC08FB58F7E8FBD8FB58062A1
:103750008FBD8FB58F7B8FBD8FB580688FBD08956E
:103760008FB580618FBD8FB580628FBD8FB580644E
:103770008FBD8FB580688FBD0895813009F478C002
:10378000813020F0823009F0ACC039C0633001F1E3
:10379000643028F4613081F0623088F407C065300D
:1037A00001F16530C0F0663041F51EC083B781601D
:1037B00083BF83B78D7F08C083B78E7F02C083B776
:1037C000816083BF83B7826083BF83B78B7F14C060
:1037D00083B78E7F02C083B7816083BF83B78D7F3D
:1037E00008C083B78E7F02C083B7816083BF83B771
:1037F000826083BF83B7846083BF12BE0895633045
:1038000001F1643028F4613081F0623088F407C03F
:10381000653001F16530C0F0663041F51EC085B5F8
:10382000816085BD85B58D7F08C085B58E7F02C05E
:1038300085B5816085BD85B5826085BD85B58B7F89
:1038400014C085B58E7F02C085B5816085BD85B504
:103850008D7F08C085B58E7F02C085B5816085BD2E
:1038600085B5826085BD85B5846085BD14BC08952D
:10387000633001F1643028F4613081F0623088F403
:1038800007C0653001F16530C0F0663041F51EC0FB
:103890008EB581608EBD8EB58D7F08C08EB58E7F52
:1038A00002C08EB581608EBD8EB582608EBD8EB534
:1038B0008B7F14C08EB58E7F02C08EB581608EBDA9
:1038C0008EB58D7F08C08EB58E7F02C08EB58160AB
:1038D0008EBD8EB582608EBD8EB584608EBD1DBCE2
:1038E0001CBC0895813079F0813018F08230F1F4F9
:1038F00014C083B78B7F83BF83B78D7F83BF83B7AC
:103900008E7F83BF08958EB58B7F8EBD8EB58D7FE4
:103910008EBD8EB58E7F8EBD089585B58B7F85BD9E
:1039200085B58D7F85BD85B58E7F85BD0895813038
:1039300051F0813018F0823051F408C088B78160AE
:1039400088BF12BE08951DBC1CBC089514BC089508
:10395000813039F0813018F0823039F405C062BF0F
:1039600008957DBD6CBD089564BD0895813049F012
:10397000813028F0823041F0833051F408C06CBFB0
:1039800008957BBD6ABD089579BD68BD089563BD86
:1039900008958330C9F0843028F4813079F0823082
:1039A00080F409C08530B1F0853088F08630A9F008
:1039B0008730D1F416C089B7826011C089B78160A1
:1039C0000EC089B780610BC089B7886008C089B70D
:1039D000846005C089B7806202C089B7806889BFEA
:1039E000089589B7806489BF08958330C9F0843011
:1039F00028F4813079F0823080F409C08530B1F04C
:103A0000853088F08630A9F08730D1F416C089B7A8
:103A10008D7F11C089B78E7F0EC089B78F7E0BC096
:103A200089B7877F08C089B78B7F05C089B78F7D2D
:103A300002C089B78F7789BF089589B78F7B89BF07
:103A400008958330F9F0843028F4813089F0823091
:103A5000A0F409C0853001F18530C8F0863009F145
:103A6000873041F523C07093BD046093BC04089572
:103A70007093BF046093BE0408957093C104609373
:103A8000C00408957093C3046093C20408957093B2
:103A9000C5046093C40408957093C7046093C6047A
:103AA00008957093CB046093CA0408957093C90479
:103AB0006093C8040895813049F0813028F0823045
:103AC00041F020E030E008C082B704C02CB53DB51D
:103AD00003C084B5282F30E0C9010895BC0180E2FD
:103AE0006C367807B8F58FB58E7F8FBD8FB58D7F1B
:103AF0008FBD8EB5877F8EBD8EB58F7E8EBD8FB507
:103B00008E7F8FBD8FB58D7F8FBD8EB588608EBD4A
:103B10008EB58F7E8EBD80E090E00E94611120E026
:103B200030E04AEF50E40E94830F0E94C8007BBD42
:103B30006ABD8EB581608EBD8EB58D7F8EBD8EB512
:103B400084608EBD1DBC1CBC08B604FEFDCF88B7CA
:103B5000806188BF0895BC0180E26C367807A0F5CB
:103B60008FB58E7F8FBD8FB58D7F8FBD8EB5877FD3
:103B70008EBD8EB58F7E8EBD8FB58E7F8FBD8FB57E
:103B80008D7F8FBD8EB588608EBD8EB58F7E8EBDCC
:103B900080E090E00E94611120E030E04AEF50E4C4
:103BA0000E94830F0E94C8007BBD6ABD8EB58160F4
:103BB0008EBD8EB58D7F8EBD8EB584608EBD1DBCD5
:103BC0001CBC89B7806189BF089586B78F7B86BF8B
:103BD0000898089882E080B986B7846086BF089507
:103BE00086B7806286BF86B7806886BF06B607FE46
:103BF000FDCF81B190E0887F883009F091E0892F76
:103C0000089586B7806286BF86B7806886BF06B68D
:103C100007FEFDCF81B1887F803111F082E00895E9
:103C200080E00895880F83B9189886B78F7D86BF86
:103C300086B7806886BF06B607FEFDCF81B1887F54
:103C4000883131F081B1887F803211F083E00895AE
:103C500080E00895880F83B9189A86B78F7D86BF54
:103C600086B7806886BF06B607FEFDCF81B1887F24
:103C7000803431F081B1887F883411F084E0089578
:103C800080E0089583B986B78F7D86BF86B7806848
:103C900086BF06B607FEFDCF81B1887F883231F03E
:103CA00081B1887F803311F085E0089580E0089528
:103CB000FC0186B7806486BF06B607FEFDCF91B1D2
:103CC00081B1887F803511F096E003C0987F83B181
:103CD0008083892F0895FC0186B78F7B86BF06B647
:103CE00007FEFDCF91B181B1887F803511F096E05C
:103CF00003C0987F83B18083892F089586B7806140
:103D000086BF86B7806886BF0895833020F48130EF
:103D100008F07BC004C0833009F0B2C03BC06530FE
:103D200011F1663038F4613091F0613050F0633059
:103D300079F516C0673001F16730C0F0683041F5A1
:103D40001EC083B7816083BF83B78D7F05C083B7F3
:103D50008E7F83BF83B7826083BF83B78B7F17C09B
:103D600083B78160F6CF83B78E7F02C083B781604F
:103D700083BF83B78D7F08C083B78E7F02C083B7B0
:103D8000816083BF83B7826083BF83B7846083BF52
:103D900012BE0895653011F1663038F4613091F04B
:103DA000613050F0633079F516C0673001F167304B
:103DB000C0F0683041F51EC085B5816085BD85B510
:103DC0008D7F05C085B58E7F85BD85B5826085BD3B
:103DD00085B58B7F17C085B58160F6CF85B58E7FA1
:103DE00002C085B5816085BD85B58D7F08C085B56C
:103DF0008E7F02C085B5816085BD85B5826085BD39
:103E000085B5846085BD14BC0895653011F16630B8
:103E100038F4613091F0613050F0633079F516C0BC
:103E2000673001F16730C0F0683041F51EC08EB5D3
:103E300081608EBD8EB58D7F05C08EB58E7F8EBDA7
:103E40008EB582608EBD8EB58B7F17C08EB58160BA
:103E5000F6CF8EB58E7F02C08EB581608EBD8EB5D9
:103E60008D7F08C08EB58E7F02C08EB581608EBDFD
:103E70008EB582608EBD8EB584608EBD1DBC1CBCAF
:103E80000895833018F4813078F403C0833011F53D
:103E900017C083B78B7F83BF83B78D7F83BF83B703
:103EA0008E7F83BF12BE08958EB58B7F8EBD8EB57B
:103EB0008D7F8EBD8EB58E7F8EBD1DBC1CBC0895C2
:103EC00085B58B7F85BD85B58D7F85BD85B58E7F9D
:103ED00085BD14BC0895813089F0813028F082308E
:103EE000C9F0833061F522C08FEF689FC0011124B3
:103EF00064E670E00E9405266CBF0895862F90E06E
:103F0000909581959F4F64E670E00E9405267BBDE9
:103F10006ABD0895862F90E0909581959F4F64E645
:103F200070E00E94052679BD68BD08958FEF689FF7
:103F3000C001112464E670E00E94052663BD089567
:103F4000813049F0813028F0823041F0833051F4E3
:103F500008C06CBF08957BBD6ABD089579BD68BD7A
:103F6000089563BD089597BD86BD08951F93162FCC
:103F7000833020F4813008F03FC004C0833009F062
:103F800072C01DC081E063E040E00E94071883B763
:103F90008F7E83BF83B7806283BF112349F01130C6
:103FA00009F061C083B7886083BF83B78F7B05C08A
:103FB00083B7886083BF83B7806483BF54C083E0C6
:103FC00067E040E00E94071885B5806185BD85B532
:103FD000806285BD112349F0113009F044C085B5D8
:103FE000886085BD85B58F7B05C085B5886085BD3A
:103FF00085B5806485BD37C0813059F483E065E0C4
:1040000040E00E9407188FB58F7B8FBD8FB5806809
:104010000AC083E064E040E00E9407188FB58F7EFD
:104020008FBD8FB580628FBD113029F0113060F0E7
:104030001930C9F40CC08FB581608FBD8FB5826017
:104040008FBD8EB5877F0BC08FB5816002C08FB5E5
:104050008E7F8FBD8FB582608FBD8EB588608EBD1F
:104060008EB580618EBD1F9108951F920F920FB67D
:104070000F9211242F933F934F935F936F937F93EE
:104080008F939F93AF93BF93EF93FF93E091CC04F3
:10409000F091CD04309709F00995FF91EF91BF9110
:1040A000AF919F918F917F916F915F914F913F91D0
:1040B0002F910F900FBE0F901F9018951F920F9287
:1040C0000FB60F9211242F933F934F935F936F93EB
:1040D0007F938F939F93AF93BF93EF93FF93E09161
:1040E000CE04F091CF04309709F00995FF91EF913C
:1040F000BF91AF919F918F917F916F915F914F9100
:104100003F912F910F900FBE0F901F9018951F9207
:104110000F920FB60F9211242F933F934F935F93FB
:104120006F937F938F939F93AF93BF93EF93FF937F
:10413000E091D004F091D104309709F00995FF91F6
:10414000EF91BF91AF919F918F917F916F915F910F
:104150004F913F912F910F900FBE0F901F90189588
:104160005D9BFECF8CB95E9BFECF5E9A08955F9BF0
:10417000FECF8CB10895813029F0813068F0823013
:1041800079F405C07093CD046093CC0408957093C6
:10419000CF046093CE0408957093D1046093D0044B
:1041A00008951F93CF93DF93EC0110E003C00E94AA
:1041B000B0201F5FFE01E10FF11D80818823B9F758
:1041C000DF91CF911F910895DC0190E05F9BFECFBE
:1041D0008CB1FD01E90FF11D80839F5F8B32B1F738
:1041E000A90FB11D11971C92089583E060E041E092
:1041F0000E940718549A83E061E040E00E9407188B
:10420000539A529857985698559886E880BD83E3FC
:1042100089B910BC0895EF92FF920F931F93F82E67
:10422000092FE62E0E94F01D182F8823D1F4037069
:10423000802F80650E94121E182F882391F48F2DE5
:104240000E94421E182F882361F48E2D0E94421E68
:10425000182F882331F40E947E1E80E395E7019792
:10426000F1F7812F1F910F91FF90EF900895DF924A
:10427000EF92FF920F931F93CF93DF937C01D42E85
:104280008B01C0E0D0E009C0CE018E0D9F1DF8016A
:1042900061918F010E940B212196CD15A8F3DF912A
:1042A000CF911F910F91FF90EF90DF900895FF92B3
:1042B0000F931F93CF93DF93F82E092FEB010E94EA
:1042C000F01D182F882329F503700065802F0E94A8
:1042D000121E182F8823E9F48F2D0E94421E182FDA
:1042E0008823B9F40E94011E182F882391F4802F8F
:1042F0000E942A1E182F882361F4CE010E94581EA6
:10430000CE010E946B1E0E94F01D80E49CE9019783
:10431000F1F7812FDF91CF911F910F91FF900895B9
:10432000BF92CF92DF92EF92FF920F931F93CF93A2
:10433000DF938C01B42E69017B01C0E0D0E009C09D
:10434000CE01800F911FF70161917F010E940B2127
:104350002196CB15A8F3C0E0D0E009C0B6016C0FE0
:104360007D1FC8010E94572121960F5F1F4FCB155B
:10437000A8F3DF91CF911F910F91FF90EF90DF9005
:10438000CF90BF900895FF920F931F93CF93DF9329
:10439000F82E092FEB010E94F01D182F8823E1F45D
:1043A00003700065802F0E94121E182F8823A1F42D
:1043B0008F2D0E94421E182F882371F40E94011E27
:1043C000182F882349F4802F0E942A1E182F882333
:1043D00019F4CE010E94581E812FDF91CF911F91B9
:1043E0000F91FF900895EF92FF920F931F93CF9339
:1043F000DF938B01E42E0E94C321E801FF24F39494
:1044000004C0CE010E94581EF3942196FE14C8F3F6
:10441000C8018E0D911D0E946B1E0E947E1E80E4BD
:104420009CE90197F1F7DF91CF911F910F91FF90D8
:10443000EF900895FF920F931F93CF93DF93F82E81
:10444000092FEB010E94F01D182F882329F5037016
:104450000065802F0E94121E182F8823E9F48F2DEB
:104460000E94421E182F8823B9F40E94011E182FA3
:10447000882391F4802F0E942A1E182F882361F42C
:10448000CE010E94581ECE010E946B1E0E947E1E0D
:1044900080E49CE90197F1F7812FDF91CF911F9183
:1044A0000F91FF9008950E94E51D0895813059F005
:1044B000813030F0823051F0833069F081E008952E
:1044C00080E060E005C080E061E002C080E062E082
:1044D0000E948E19089580E063E00E948E1908956D
:1044E000462F813051F0813028F0823049F08330FE
:1044F00081F40BC080E064E005C080E065E002C0AC
:1045000080E066E00E94CD18089580E067E00E9498
:10451000CD1808950F931F93182F16951695082FF1
:104520000370802F60E00E947022812F0E9456222B
:10453000882311F010E00BC080E197E20197F1F7BA
:10454000812F0E94562210E0882309F411E0802F69
:1045500061E00E947022812F1F910F91089580E0E9
:1045600060E042E00E94071880E061E042E00E94C3
:10457000071880E062E042E00E94071880E063E0F4
:1045800042E00E94071880E064E040E00E940718C3
:1045900080E065E040E00E94071880E066E040E0CF
:1045A0000E94071880E067E040E00E94071880E062
:1045B00064E041E00E94CD1880E065E041E00E94A7
:1045C000CD1880E066E041E00E94CD1880E067E011
:1045D00041E00E94CD180895EF92FF921F93182F8B
:1045E00081E060E040E00E94CD1881E061E040E0C1
:1045F0000E94CD18612F607F80E00E947D1981E0CC
:1046000062E041E00E94CD1880EDE82E87E0F82EB0
:10461000C7010197F1F781E062E040E00E94CD1808
:104620001295107F80E0612F0E947D1981E062E089
:1046300041E00E94CD18C7010197F1F781E062E0E7
:1046400040E00E94CD181F91FF90EF9008950F93C6
:104650001F93182F81E060E041E00E94CD1881E0B7
:1046600061E040E00E94CD1880E0612F0E947D193A
:1046700081E062E041E00E94CD1800EA1FE0C8013D
:104680000197F1F781E062E040E00E94CD18C80197
:104690000197F1F71F910F9108952F923F924F923A
:1046A0005F926F927F928F929F92AF92BF92CF92C2
:1046B000DF92EF92FF920F931F93DF93CF930F92AE
:1046C000CDB7DEB76C0197FF07C0D094C194D10875
:1046D000D3948DE20E94272322243324442455249A
:1046E000662477248824992419829101A201B301B8
:1046F000C40101E00E944900122FF32EE42EB52ED2
:10470000A62E972E882E792E02E00E944900F22FC5
:10471000F10F21E0F11708F020E03F0DE1E03F1537
:1047200008F0E0E0F22EF30E21E0F31608F020E0AE
:10473000E22B4E0D31E04E1508F030E0EE2EE40E87
:1047400021E0E41608F020E0322B5B0D41E05B1520
:1047500008F040E0B32EB50E21E0B51608F020E0D9
:10476000422B6A0D31E06A1508F030E0A42EA60E47
:1047700021E0A61608F020E0322B790D41E07915F2
:1047800008F040E0932E970E21E0971608F020E005
:10479000422B880D31E0881508F030E0842E880E19
:1047A00021E0881608F020E0E32FE22B970DE90FB7
:1047B000C6016AE070E00E9419269C01330F220BAB
:1047C000322F482F892F922F322F722FA22F022F94
:1047D000142F1F0F61E0141708F060E0482F4F0DF1
:1047E00051E0481708F050E0F62EF40E81E0F41680
:1047F00008F080E0582B892F8E0D41E0891708F0D2
:1048000040E0B52FB80F91E0B81708F090E0492BC1
:10481000832F8B0D51E0831708F050E0F42FF80F31
:1048200091E0F81708F090E0592B872F8A0D41E0AE
:10483000871708F040E0752F780F91E0781708F09F
:1048400090E0492B8A2F890D51E08A1708F050E03B
:10485000642F680F91E0681708F090E0592B802FC3
:10486000880D41E0801708F040E0580F91E058179C
:1048700008F090E0492B2E0F212E3F2C4B2E5F2E5F
:10488000672E762E852E942E920EC6016AE070E079
:104890000E9419266B0189818F5F8983161617067E
:1048A0000CF423CF20C09101A201B301C401EAE0BE
:1048B000AE2EBB24CC24DD24EE24FF2400E010E047
:1048C0000E946907822F805D0E9427239101A20127
:1048D000B301C4010E94F40019012A013B014C01FB
:1048E000E981E150E983F981FF23E9F60F90CF9147
:1048F000DF911F910F91FF90EF90DF90CF90BF90CD
:10490000AF909F908F907F906F905F904F903F906F
:104910002F9008951F93CF93DF93EC0110E003C015
:104920000E9427231F5FFE01E10FF11D8081882374
:10493000B9F7DF91CF911F9108950E942723089521
:104940001F93182F81E060E040E00E94CD1881E0C5
:1049500061E040E00E94CD1880E0612F0E947D1947
:1049600081E062E041E00E94CD1880ED97E0019780
:10497000F1F781E062E040E00E94CD1880EA9FE01C
:104980000197F1F71F910895882329F0813011F0E4
:1049900060E001C0605C862F80680E94A0240895BA
:1049A0001F93182F04C080E10E94A02411501123EE
:1049B000D1F71F9108951F93182F04C084E10E941E
:1049C000A02411501123D1F71F9108951F93182F80
:1049D00004C088E10E94A02411501123D1F71F9137
:1049E00008951F93182F04C08CE10E94A024115039
:1049F0001123D1F71F9108958295880F880F807C2D
:104A0000860F80680E94A02408950F931F93CF9370
:104A1000DF938B01883090F4880F880F880F8064B3
:104A20000E94A024C0E0D0E0F801EC0FFD1F8081BF
:104A30000E9427232196C830D105B1F780E80E9453
:104A4000A024DF91CF911F910F91089581E00E94E2
:104A5000A02480E060E00E94FC24089582E00E948F
:104A6000A02408950F931F9380E060E00E94331903
:104A700081E060E040E00E94071881E061E040E0F2
:104A80000E94071881E062E040E00E94071880E67B
:104A90009AEE0197F1F788E30E94A02408EC10E059
:104AA000C8010197F1F78CE00E94A024C80101978A
:104AB000F1F781E00E94A02480EA9FE00197F1F7DE
:104AC0001F910F9108950E94AE19089540E00E9431
:104AD000CD18089541E00E94CD18089540E00E944D
:104AE0000718089583E00E94411F83E060E00E9460
:104AF0006B1F82E00E94971C0895AF92BF92CF92E5
:104B0000DF92EF92FF920F931F93082F83E066E0EE
:104B10000E94851E10E088EE93E0089FB001099F77
:104B2000700D189F700D112480E090E00E946111BB
:104B30005B016C0120E030E04AEF54E40E94830FF7
:104B40007B018C0120E030E040E85FE30E94DD1053
:104B500088231CF461E070E024C0C801B70120E0A4
:104B60003FEF4FE757E40E947D101816B4F4C601DA
:104B7000B50120E030E040E251E40E94830F0E9442
:104B8000C80088EC90E005C0FC013197F1F7615056
:104B9000704061157105C1F707C0C801B7010E94D7
:104BA000C800CB010197F1F783E00E94411F1F91DC
:104BB0000F91FF90EF90DF90CF90BF90AF9008954E
:104BC00083E061E00E94B61F83E062E30E946B1FF6
:104BD00008959C0153E0880F991F5A95E1F7220F21
:104BE000331F820F931F82519D4F9BBD8ABD81E071
:104BF00061E00E94851E089581E069E00E94B61F71
:104C000080E29EE40E94B31F0895AA1BBB1B51E1E2
:104C100007C0AA1FBB1FA617B70710F0A61BB70B2C
:104C2000881F991F5A95A9F780959095BC01CD01D1
:104C3000089597FB092E07260AD077FD04D0E5DFFB
:104C400006D000201AF4709561957F4F0895F6F70D
:104C5000909581959F4F0895629FD001739FF001B9
:104C6000829FE00DF11D649FE00DF11D929FF00DFC
:104C7000839FF00D749FF00D659FF00D9927729F33
:104C8000B00DE11DF91F639FB00DE11DF91FBD01BE
:104C9000CF0111240895A1E21A2EAA1BBB1BFD010E
:104CA0000DC0AA1FBB1FEE1FFF1FA217B307E4070B
:104CB000F50720F0A21BB30BE40BF50B661F771F63
:104CC000881F991F1A9469F7609570958095909543
:104CD0009B01AC01BD01CF0108952F923F924F92ED
:104CE0005F926F927F928F929F92AF92BF92CF927C
:104CF000DF92EF92FF920F931F93CF93DF93CDB785
:104D0000DEB7CA1BDB0B0FB6F894DEBF0FBECDBFFC
:104D100009942A88398848885F846E847D848C84CD
:104D20009B84AA84B984C884DF80EE80FD800C81D6
:104D30001B81AA81B981CE0FD11D0FB6F894DEBFB9
:0C4D40000FBECDBFED010895F894FFCF29
:104D4C000A0D594F55522041524520494E0A0D002B
:104D5C000A0D28312920746F2061646420757365F5
:104D6C0072200A0D28322920746F206D6F646966D9
:104D7C00792075736572200A0D28332920746F20F1
:104D8C0045584954000A0D41444420555345520A94
:104D9C000D000A0D4E4F54453A0A0D000A0D4944B8
:104DAC00206D7573742062652034204C69747465B1
:104DBC00722F4E756D20656E64696E67207769740D
:104DCC006820272B2720617320357468200A0D007A
:104DDC000A0D50617373776F7264206D7573742054
:104DEC0062652033204C69747465722F4E756D208A
:104DFC00656E64696E67207769746820272B27209D
:104E0C00617320347468200A0D000A0D506C6561C2
:104E1C00736520456E746572205573657220696EDA
:104E2C006465782066726F6D2028312D3429000A54
:104E3C000D506C6561736520656E74657220494414
:104E4C0020656E64696E67207769746820272B274C
:104E5C00000A0D506C6561736520656E7465722077
:104E6C0050617373776F726420656E64696E67202E
:104E7C007769746820272B27000A0D3E3E3E3E3E84
:104E8C003E3E3E555345522041444445443C3C3CF7
:104E9C003C3C3C3C3C3C3C3C3C3C3C3C3C3C0A0DA7
:104EAC00000A0D4D4F4449465920555345520A0DA1
:104EBC00000A0D3E3E3E3E3E3E3E3E555345522080
:104ECC004D4F4449464945443C3C3C3C3C3C3C3CB5
:104EDC003C3C3C3C3C3C3C3C3C0A0D000A0D474FE6
:104EEC004F444259450A0D000A0D57524F4E472068
:104EFC00494E5055540A0D000A0D28312920746F63
:104F0C00204F70656E2074686520646F6F72200A84
:104F1C000D28322920746F205475726E204F6E2F1D
:104F2C004F666620746865206C69676874730A0D37
:104F3C0028332920746F205475726E204F6E2F4FBA
:104F4C00666620746865205456200A0D2834292082
:104F5C00746F2045584954000A0D2831294F4E20B2
:104F6C000A0D2832294F464620000A0D57726F6EE3
:104F7C006720496E7075740A0D000A0D506C6561DE
:104F8C00736520456E74657220596F7572204D6F74
:104F9C0064652027312720666F722041646D696E2D
:104FAC002027322720466F7220557365720A0D0038
:104FBC000A0D41444D494E204D4F44450A0D000AFF
:104FCC000D506C6561736520656E74657220494483
:104FDC0020656E64696E67207769746820272B27BB
:104FEC000A0D4E4F5445205448415420594F5520DA
:104FFC0048415645204F4E4C59205448524545285F
:10500C003329205452494553000A0D506C65617385
:10501C006520656E7465722070617373776F72644E
:10502C0020656E64696E67207769746820272B276A
:10503C000A0D4E4F5445205448415420594F552089
:10504C0048415645204F4E4C59205448524545280E
:10505C003329205452494553000A0D57524F4E479D
:10506C002050415353574F52440A0D000A0D5752CA
:10507C004F4E472049440A0D000A0D555345522006
:10508C004D4F44450A0D00000000000000000000D8
:10509C0001020203030303040404040404040405CE
:1050AC0005050505050505050505050505050506A3
:1050BC000606060606060606060606060606060684
:1050CC000606060606060606060606060606060773
:1050DC000707070707070707070707070707070754
:1050EC000707070707070707070707070707070744
:1050FC000707070707070707070707070707070734
:10510C000707070707070707070707070707070822
:10511C000808080808080808080808080808080803
:10512C0008080808080808080808080808080808F3
:10513C0008080808080808080808080808080808E3
:10514C0008080808080808080808080808080808D3
:10515C0008080808080808080808080808080808C3
:10516C0008080808080808080808080808080808B3
:10517C0008080808080808080808080808080808A3
:10518C000808080808080808080808080808080398
:0A519C0001050600000000010000FC
:00000001FF
